{
  "contractName": "HashGenerator",
  "abi": [
    {
      "inputs": [],
      "payable": false,
      "stateMutability": "nonpayable",
      "type": "constructor"
    },
    {
      "constant": true,
      "inputs": [
        {
          "name": "nonce",
          "type": "uint256"
        },
        {
          "name": "bidAmt",
          "type": "uint256"
        }
      ],
      "name": "generateHash",
      "outputs": [
        {
          "name": "",
          "type": "bytes32"
        }
      ],
      "payable": false,
      "stateMutability": "pure",
      "type": "function"
    }
  ],
  "bytecode": "0x608060405234801561001057600080fd5b5061010a806100206000396000f3fe608060405260043610603f576000357c0100000000000000000000000000000000000000000000000000000000900463ffffffff168063324a7d34146044575b600080fd5b348015604f57600080fd5b50608360048036036040811015606457600080fd5b8101908080359060200190929190803590602001909291905050506099565b6040518082815260200191505060405180910390f35b6000606083836040516020018083815260200182815260200192505050604051602081830303815290604052905060008180519060200120905080925050509291505056fea165627a7a72305820dc630b0dbf08a774aa2df181cac6fb2635eb3a587f2863a68f0168c0035237770029",
  "source": "pragma solidity ^0.5.0;\n\ncontract HashGenerator {\n    \n    constructor() public {\n\n    }\n    \n    function generateHash(uint nonce, uint bidAmt) public pure returns (bytes32) {\n        bytes memory toHash = abi.encodePacked(nonce, bidAmt);\n        bytes32 hash = keccak256(toHash);\n        return hash;\n    }\n}\n",
  "sourcePath": "/Users/raine/Documents/GitHub/bc-tender/contracts/HashGenerator.sol",
  "compiler": {
    "name": "solc",
    "version": "0.5.0+commit.1d4f565a.Emscripten.clang"
  },
  "schemaVersion": "3.0.9",
  "updatedAt": "2019-06-07T01:25:18.542Z",
  "devdoc": {
    "methods": {}
  },
  "userdoc": {
    "methods": {}
  }
}