{
  "contractName": "HashGenerator",
  "abi": [
    {
      "inputs": [],
      "payable": false,
      "stateMutability": "nonpayable",
      "type": "constructor"
    },
    {
      "constant": true,
      "inputs": [
        {
          "name": "nonce",
          "type": "uint256"
        },
        {
          "name": "bidAmt",
          "type": "uint256"
        }
      ],
      "name": "generateHash",
      "outputs": [
        {
          "name": "",
          "type": "bytes32"
        }
      ],
      "payable": false,
      "stateMutability": "pure",
      "type": "function"
    }
  ],
  "bytecode": "0x608060405234801561001057600080fd5b5060e78061001f6000396000f3fe6080604052348015600f57600080fd5b506004361060285760003560e01c8063324a7d3414602d575b600080fd5b606060048036036040811015604157600080fd5b8101908080359060200190929190803590602001909291905050506076565b6040518082815260200191505060405180910390f35b6000606083836040516020018083815260200182815260200192505050604051602081830303815290604052905060008180519060200120905080925050509291505056fea165627a7a7230582033fe2ab4edede537a951ce8f4aa01f716093e261d5cb9a8601ab8ab8a94b11060029",
  "source": "pragma solidity ^0.5.0;\n\ncontract HashGenerator {\n    \n    constructor() public {\n\n    }\n    \n    function generateHash(uint nonce, uint bidAmt) public pure returns (bytes32) {\n        bytes memory toHash = abi.encodePacked(nonce, bidAmt);\n        bytes32 hash = keccak256(toHash);\n        return hash;\n    }\n}\n",
  "sourcePath": "/home/ley/Desktop/SMU_project/bc-tender/contracts/HashGenerator.sol",
  "compiler": {
    "name": "solc",
    "version": "0.5.8+commit.23d335f2.Emscripten.clang"
  },
  "schemaVersion": "3.0.10",
  "updatedAt": "2019-06-08T11:16:25.354Z",
  "devdoc": {
    "methods": {}
  },
  "userdoc": {
    "methods": {}
  }
}