{
  "contractName": "HashGenerator",
  "abi": [
    {
      "inputs": [],
      "payable": false,
      "stateMutability": "nonpayable",
      "type": "constructor"
    },
    {
      "constant": true,
      "inputs": [
        {
          "name": "nonce",
          "type": "uint256"
        },
        {
          "name": "bidAmt",
          "type": "uint256"
        }
      ],
      "name": "generateHash",
      "outputs": [
        {
          "name": "",
          "type": "bytes32"
        }
      ],
      "payable": false,
      "stateMutability": "pure",
      "type": "function"
    }
  ],
  "bytecode": "0x608060405234801561001057600080fd5b5060e78061001f6000396000f3fe6080604052348015600f57600080fd5b506004361060285760003560e01c8063324a7d3414602d575b600080fd5b606060048036036040811015604157600080fd5b8101908080359060200190929190803590602001909291905050506076565b6040518082815260200191505060405180910390f35b6000606083836040516020018083815260200182815260200192505050604051602081830303815290604052905060008180519060200120905080925050509291505056fea165627a7a72305820843e9ce5bbcb6bf78493f66b840ef137ddf59ad0dfedb6f7cfe4672865f029be0029",
  "source": "pragma solidity ^0.5.0;\r\n\r\ncontract HashGenerator {\r\n    \r\n    constructor() public {\r\n\r\n    }\r\n    \r\n    function generateHash(uint nonce, uint bidAmt) public pure returns (bytes32) {\r\n        bytes memory toHash = abi.encodePacked(nonce, bidAmt);\r\n        bytes32 hash = keccak256(toHash);\r\n        return hash;\r\n    }\r\n}\r\n",
  "sourcePath": "C:/Users/Dell/Desktop/Blockchain (SMU Certified)/bc-tender/contracts/HashGenerator.sol",
  "compiler": {
    "name": "solc",
    "version": "0.5.8+commit.23d335f2.Emscripten.clang"
  },
  "schemaVersion": "3.0.10",
  "updatedAt": "2019-06-04T17:08:08.444Z",
  "devdoc": {
    "methods": {}
  },
  "userdoc": {
    "methods": {}
  }
}