{
  "contractName": "SimpleStorage",
  "abi": [
    {
      "constant": true,
      "inputs": [],
      "name": "storedData",
      "outputs": [
        {
          "name": "",
          "type": "uint256"
        }
      ],
      "payable": false,
      "stateMutability": "view",
      "type": "function"
    },
    {
      "anonymous": false,
      "inputs": [
        {
          "indexed": false,
          "name": "_message",
          "type": "string"
        }
      ],
      "name": "StorageSet",
      "type": "event"
    },
    {
      "constant": false,
      "inputs": [
        {
          "name": "x",
          "type": "uint256"
        }
      ],
      "name": "set",
      "outputs": [],
      "payable": false,
      "stateMutability": "nonpayable",
      "type": "function"
    }
  ],
  "bytecode": "0x608060405234801561001057600080fd5b50610122806100206000396000f3fe6080604052348015600f57600080fd5b506004361060325760003560e01c80632a1afcd914603757806360fe47b1146053575b600080fd5b603d607e565b6040518082815260200191505060405180910390f35b607c60048036036020811015606757600080fd5b81019080803590602001909291905050506084565b005b60005481565b806000819055507f60cdc157ca4737a5d39a0e107532616e7bf6946e615228812c7f9bc9f81797a66040518080602001828103825260198152602001807f446174612073746f726564207375636365737366756c6c79210000000000000081525060200191505060405180910390a15056fea165627a7a723058203e11d785d52d2b287bc693c4b673bf9f9faacefdd202f65e8f3b7dfcdff97d330029",
  "source": "pragma solidity >=0.4.21 <0.6.0;\r\n\r\ncontract SimpleStorage {\r\n    event StorageSet(string _message);\r\n\r\n    uint public storedData;\r\n\r\n    function set(uint x) public {\r\n        storedData = x;\r\n\r\n        emit StorageSet(\"Data stored successfully!\");\r\n    }\r\n}\r\n",
  "sourcePath": "C:/Users/Dell/Desktop/Blockchain (SMU Certified)/bc-tender/contracts/SimpleStorage.sol",
  "compiler": {
    "name": "solc",
    "version": "0.5.8+commit.23d335f2.Emscripten.clang"
  },
  "schemaVersion": "3.0.10",
  "updatedAt": "2019-06-04T17:08:08.426Z",
  "devdoc": {
    "methods": {}
  },
  "userdoc": {
    "methods": {}
  }
}