{
  "contractName": "Tender",
  "abi": [
    {
      "inputs": [
        {
          "name": "desc",
          "type": "string"
        },
        {
          "name": "biddingDuration",
          "type": "uint256"
        },
        {
          "name": "revelationDuration",
          "type": "uint256"
        },
        {
          "name": "depositAmount",
          "type": "uint256"
        }
      ],
      "payable": true,
      "stateMutability": "payable",
      "type": "constructor"
    },
    {
      "anonymous": false,
      "inputs": [
        {
          "indexed": false,
          "name": "winner",
          "type": "address"
        },
        {
          "indexed": false,
          "name": "bid",
          "type": "uint256"
        }
      ],
      "name": "tenderEndsWithWinner",
      "type": "event"
    },
    {
      "anonymous": false,
      "inputs": [],
      "name": "tenderEndsWithoutWinner",
      "type": "event"
    },
    {
      "constant": false,
      "inputs": [
        {
          "name": "hashedBid",
          "type": "bytes32"
        }
      ],
      "name": "makeBid",
      "outputs": [],
      "payable": true,
      "stateMutability": "payable",
      "type": "function"
    },
    {
      "constant": false,
      "inputs": [
        {
          "name": "nonce",
          "type": "uint256"
        },
        {
          "name": "bidAmt",
          "type": "uint256"
        }
      ],
      "name": "revealBid",
      "outputs": [],
      "payable": false,
      "stateMutability": "nonpayable",
      "type": "function"
    },
    {
      "constant": false,
      "inputs": [],
      "name": "endRevelation",
      "outputs": [],
      "payable": false,
      "stateMutability": "nonpayable",
      "type": "function"
    },
    {
      "constant": false,
      "inputs": [],
      "name": "close",
      "outputs": [],
      "payable": false,
      "stateMutability": "nonpayable",
      "type": "function"
    },
    {
      "constant": false,
      "inputs": [
        {
          "name": "desc",
          "type": "string"
        },
        {
          "name": "biddingDuration",
          "type": "uint256"
        },
        {
          "name": "revelationDuration",
          "type": "uint256"
        },
        {
          "name": "depositAmount",
          "type": "uint256"
        }
      ],
      "name": "reopenTender",
      "outputs": [],
      "payable": false,
      "stateMutability": "nonpayable",
      "type": "function"
    },
    {
      "constant": true,
      "inputs": [],
      "name": "getPhase",
      "outputs": [
        {
          "name": "",
          "type": "string"
        }
      ],
      "payable": false,
      "stateMutability": "view",
      "type": "function"
    },
    {
      "constant": true,
      "inputs": [],
      "name": "getProjectDetails",
      "outputs": [
        {
          "name": "",
          "type": "string"
        },
        {
          "name": "",
          "type": "uint256"
        },
        {
          "name": "",
          "type": "uint256"
        },
        {
          "name": "",
          "type": "uint256"
        }
      ],
      "payable": false,
      "stateMutability": "view",
      "type": "function"
    },
    {
      "constant": true,
      "inputs": [],
      "name": "getResults",
      "outputs": [
        {
          "name": "",
          "type": "address"
        },
        {
          "name": "",
          "type": "uint256"
        }
      ],
      "payable": false,
      "stateMutability": "view",
      "type": "function"
    }
  ],
  "bytecode": "0x60806040526040516200160238038062001602833981018060405260808110156200002957600080fd5b8101908080516401000000008111156200004257600080fd5b828101905060208101848111156200005957600080fd5b81518560018202830111640100000000821117156200007757600080fd5b5050929190602001805190602001909291908051906020019092919080519060200190929190505050336000806101000a81548173ffffffffffffffffffffffffffffffffffffffff021916908373ffffffffffffffffffffffffffffffffffffffff1602179055508360019080519060200190620000f892919062000124565b50603c83024201600381905550603c8202600354016004819055508060028190555050505050620001d3565b828054600181600116156101000203166002900490600052602060002090601f016020900481019282601f106200016757805160ff191683800117855562000198565b8280016001018555821562000198579182015b82811115620001975782518255916020019190600101906200017a565b5b509050620001a79190620001ab565b5090565b620001d091905b80821115620001cc576000816000905550600101620001b2565b5090565b90565b61141f80620001e36000396000f3fe60806040526004361061007b5760003560e01c80636a0054d11161004e5780636a0054d1146102095780637a93537014610220578063eced028014610265578063ff3a9c7e146102f55761007b565b80631f7c30fd1461008057806343d726d6146101665780634717f97c1461017d578063553545d2146101db575b600080fd5b34801561008c57600080fd5b50610164600480360360808110156100a357600080fd5b81019080803590602001906401000000008111156100c057600080fd5b8201836020820111156100d257600080fd5b803590602001918460018302840111640100000000831117156100f457600080fd5b91908080601f016020809104026020016040519081016040528093929190818152602001838380828437600081840152601f19601f82011690508083019250505050505050919291929080359060200190929190803590602001909291908035906020019092919050505061039a565b005b34801561017257600080fd5b5061017b61044c565b005b34801561018957600080fd5b506101926104f8565b604051808373ffffffffffffffffffffffffffffffffffffffff1673ffffffffffffffffffffffffffffffffffffffff1681526020018281526020019250505060405180910390f35b610207600480360360208110156101f157600080fd5b8101908080359060200190929190505050610552565b005b34801561021557600080fd5b5061021e610728565b005b34801561022c57600080fd5b506102636004803603604081101561024357600080fd5b810190808035906020019092919080359060200190929190505050610ba7565b005b34801561027157600080fd5b5061027a6110fa565b6040518080602001828103825283818151815260200191508051906020019080838360005b838110156102ba57808201518184015260208101905061029f565b50505050905090810190601f1680156102e75780820380516001836020036101000a031916815260200191505b509250505060405180910390f35b34801561030157600080fd5b5061030a6111c6565b6040518080602001858152602001848152602001838152602001828103825286818151815260200191508051906020019080838360005b8381101561035c578082015181840152602081019050610341565b50505050905090810190601f1680156103895780820380516001836020036101000a031916815260200191505b509550505050505060405180910390f35b3373ffffffffffffffffffffffffffffffffffffffff166000809054906101000a900473ffffffffffffffffffffffffffffffffffffffff1673ffffffffffffffffffffffffffffffffffffffff16146103f357600080fd5b83600190805190602001906104099291906112d8565b50603c83024201600381905550603c820260035401600481905550806002819055506000600760016101000a81548160ff02191690831515021790555050505050565b3373ffffffffffffffffffffffffffffffffffffffff166000809054906101000a900473ffffffffffffffffffffffffffffffffffffffff1673ffffffffffffffffffffffffffffffffffffffff16146104a557600080fd5b600760019054906101000a900460ff166104be57600080fd5b6000809054906101000a900473ffffffffffffffffffffffffffffffffffffffff1673ffffffffffffffffffffffffffffffffffffffff16ff5b60008060045480421161050a57600080fd5b600760019054906101000a900460ff1661052357600080fd5b600560009054906101000a900473ffffffffffffffffffffffffffffffffffffffff1660065492509250509091565b60035480421061056157600080fd5b61056a33611282565b156105df57604051806040016040528083815260200142815250600860003373ffffffffffffffffffffffffffffffffffffffff1673ffffffffffffffffffffffffffffffffffffffff1681526020019081526020016000206000820151816000015560208201518160010155905050610724565b670de0b6b3a7640000600254023414610660576040517f08c379a000000000000000000000000000000000000000000000000000000000815260040180806020018281038252601c8152602001807f4465706f73697420616d6f756e7420697320696e636f7272656374210000000081525060200191505060405180910390fd5b604051806040016040528083815260200142815250600860003373ffffffffffffffffffffffffffffffffffffffff1673ffffffffffffffffffffffffffffffffffffffff16815260200190815260200160002060008201518160000155602082015181600101559050506001600960003373ffffffffffffffffffffffffffffffffffffffff1673ffffffffffffffffffffffffffffffffffffffff16815260200190815260200160002060006101000a81548160ff0219169083151502179055505b5050565b3373ffffffffffffffffffffffffffffffffffffffff166000809054906101000a900473ffffffffffffffffffffffffffffffffffffffff1673ffffffffffffffffffffffffffffffffffffffff161461078157600080fd5b60045480421161079057600080fd5b600760019054906101000a900460ff16156107aa57600080fd5b6000600a8054905014156107e9577f33e08f6e3768eedb2e4bacee86a18a76b6f19c3b73f0d070f3e1ee5c9456b8c360405160405180910390a1610b89565b6107f1611358565b60008090506000670de0b6b3a76400006002540290505b600760009054906101000a900460ff1615801561082b5750600a80549050821015155b1561097257600a828154811061083d57fe5b906000526020600020906003020160405180606001604052908160008201548152602001600182015481526020016002820160009054906101000a900473ffffffffffffffffffffffffffffffffffffffff1673ffffffffffffffffffffffffffffffffffffffff1673ffffffffffffffffffffffffffffffffffffffff16815250509250670de0b6b3a764000083600001510281846040015173ffffffffffffffffffffffffffffffffffffffff16310310610964578260400151600560006101000a81548173ffffffffffffffffffffffffffffffffffffffff021916908373ffffffffffffffffffffffffffffffffffffffff16021790555082600001516006819055506001600760006101000a81548160ff02191690831515021790555061096d565b81806001019250505b610808565b61097a611358565b60006001840190505b600a80549050811015610aad57600a818154811061099d57fe5b906000526020600020906003020160405180606001604052908160008201548152602001600182015481526020016002820160009054906101000a900473ffffffffffffffffffffffffffffffffffffffff1673ffffffffffffffffffffffffffffffffffffffff1673ffffffffffffffffffffffffffffffffffffffff16815250509150670de0b6b3a764000082600001510283836040015173ffffffffffffffffffffffffffffffffffffffff16310310610aa057816040015173ffffffffffffffffffffffffffffffffffffffff166108fc849081150290604051600060405180830381858888f19350505050158015610a9e573d6000803e3d6000fd5b505b8080600101915050610983565b50600760009054906101000a900460ff1615610b57577fd69c971831c5571301c3ea9e7226489c0ce4c2f498bb8f90f7e17772e273a062600560009054906101000a900473ffffffffffffffffffffffffffffffffffffffff16600654604051808373ffffffffffffffffffffffffffffffffffffffff1673ffffffffffffffffffffffffffffffffffffffff1681526020018281526020019250505060405180910390a1610b84565b7f33e08f6e3768eedb2e4bacee86a18a76b6f19c3b73f0d070f3e1ee5c9456b8c360405160405180910390a15b505050505b6001600760016101000a81548160ff02191690831515021790555050565b600354804211610bb657600080fd5b600454804210610bc557600080fd5b610bce33611282565b610bd757600080fd5b6060848460405160200180838152602001828152602001925050506040516020818303038152906040529050600081805190602001209050610c1761138f565b600860003373ffffffffffffffffffffffffffffffffffffffff1673ffffffffffffffffffffffffffffffffffffffff16815260200190815260200160002060405180604001604052908160008201548152602001600182015481525050905080600001518214610cd3576040517f08c379a00000000000000000000000000000000000000000000000000000000081526004018080602001828103825260228152602001806113d26022913960400191505060405180910390fd5b610cdb611358565b6040518060600160405280888152602001836020015181526020013373ffffffffffffffffffffffffffffffffffffffff1681525090506000600a8054905090506000809050610d29611358565b610d31611358565b60008090505b84811015610f2757610d47611358565b600a8281548110610d5457fe5b906000526020600020906003020160405180606001604052908160008201548152602001600182015481526020016002820160009054906101000a900473ffffffffffffffffffffffffffffffffffffffff1673ffffffffffffffffffffffffffffffffffffffff1673ffffffffffffffffffffffffffffffffffffffff168152505090508415610e645783925080935082600a8381548110610df357fe5b9060005260206000209060030201600082015181600001556020820151816001015560408201518160020160006101000a81548173ffffffffffffffffffffffffffffffffffffffff021916908373ffffffffffffffffffffffffffffffffffffffff160217905550905050610f19565b80600001518d1180610e8c575080600001518d148015610e8b575080602001518860200151105b5b15610f175780935086600a8381548110610ea257fe5b9060005260206000209060030201600082015181600001556020820151816001015560408201518160020160006101000a81548173ffffffffffffffffffffffffffffffffffffffff021916908373ffffffffffffffffffffffffffffffffffffffff16021790555090505060019450610f18565b5b5b508080600101915050610d37565b5082610fbe57600a8590806001815401808255809150509060018203906000526020600020906003020160009091929091909150600082015181600001556020820151816001015560408201518160020160006101000a81548173ffffffffffffffffffffffffffffffffffffffff021916908373ffffffffffffffffffffffffffffffffffffffff16021790555050505061104b565b600a8290806001815401808255809150509060018203906000526020600020906003020160009091929091909150600082015181600001556020820151816001015560408201518160020160006101000a81548173ffffffffffffffffffffffffffffffffffffffff021916908373ffffffffffffffffffffffffffffffffffffffff1602179055505050505b600860003373ffffffffffffffffffffffffffffffffffffffff1673ffffffffffffffffffffffffffffffffffffffff16815260200190815260200160002060008082016000905560018201600090555050600960003373ffffffffffffffffffffffffffffffffffffffff1673ffffffffffffffffffffffffffffffffffffffff16815260200190815260200160002060006101000a81549060ff0219169055505050505050505050505050565b6060600354421015611143576040518060400160405280600781526020017f42696464696e670000000000000000000000000000000000000000000000000081525090506111c3565b60045442101561118a576040518060400160405280600a81526020017f526576656c6174696f6e0000000000000000000000000000000000000000000081525090506111c3565b6040518060400160405280600381526020017f456e64000000000000000000000000000000000000000000000000000000000081525090505b90565b606060008060006001600254600354600454838054600181600116156101000203166002900480601f01602080910402602001604051908101604052809291908181526020018280546001816001161561010002031660029004801561126d5780601f106112425761010080835404028352916020019161126d565b820191906000526020600020905b81548152906001019060200180831161125057829003601f168201915b50505050509350935093509350935090919293565b6000600960008373ffffffffffffffffffffffffffffffffffffffff1673ffffffffffffffffffffffffffffffffffffffff16815260200190815260200160002060009054906101000a900460ff169050919050565b828054600181600116156101000203166002900490600052602060002090601f016020900481019282601f1061131957805160ff1916838001178555611347565b82800160010185558215611347579182015b8281111561134657825182559160200191906001019061132b565b5b50905061135491906113ac565b5090565b60405180606001604052806000815260200160008152602001600073ffffffffffffffffffffffffffffffffffffffff1681525090565b604051806040016040528060008019168152602001600081525090565b6113ce91905b808211156113ca5760008160009055506001016113b2565b5090565b9056fe496e636f7272656374206e6f6e636520616e642f6f722062696420616d6f756e7421a165627a7a723058206b11f5d2727411ad23c9e931eb31f389a9e4f472023408ec658c0733500c0a750029",
  "source": "pragma solidity ^0.5.0;\r\n\r\ncontract Tender {\r\n\r\n    address payable private owner;\r\n    string private projectDescription;\r\n    uint private deposit;\r\n    uint private biddingEnd;\r\n    uint private revelationEnd;\r\n    address private winner;\r\n    uint private highestBid;\r\n    bool private winnerExists;\r\n    bool private checkedByOwner;\r\n    mapping(address => closedBid) hashedBids;\r\n    mapping(address => bool) bidExists;\r\n    openBid[] private bidQueue;\r\n\r\n    event tenderEndsWithWinner(address winner, uint bid);\r\n    event tenderEndsWithoutWinner();\r\n\r\n    struct closedBid {\r\n        bytes32 hash;\r\n        uint time;\r\n    }\r\n\r\n    struct openBid {\r\n        uint amount;\r\n        uint time;\r\n        address payable owner;\r\n    }\r\n\r\n    // Bidding duration in minutes\r\n    constructor(string memory desc, uint biddingDuration, uint revelationDuration, uint depositAmount) public payable {\r\n        owner = msg.sender;\r\n        projectDescription = desc;\r\n        biddingEnd = now + (biddingDuration * 1 minutes);\r\n        revelationEnd = biddingEnd + (revelationDuration * 1 minutes);\r\n        deposit = depositAmount; // Deposit in Ether\r\n    }\r\n\r\n    modifier onlyBefore(uint time) {\r\n        require(now < time);\r\n        _;\r\n    }\r\n\r\n    modifier onlyAfter(uint time) {\r\n        require(now > time);\r\n        _;\r\n    }\r\n\r\n    modifier ownerOnly() {\r\n        require(owner == msg.sender);\r\n        _;\r\n    }\r\n\r\n    function hasBidBefore(address bidder) private view returns (bool) {\r\n        return bidExists[bidder];\r\n    }\r\n\r\n    // Lets bidder submit hashed bids and ensures that bidders only make one bid each\r\n    function makeBid(bytes32 hashedBid) public payable onlyBefore(biddingEnd) {\r\n        if (hasBidBefore(msg.sender)) {\r\n            hashedBids[msg.sender] = closedBid(hashedBid, now);\r\n        } else {\r\n            require(msg.value == (deposit * 1 ether), \"Deposit amount is incorrect!\");\r\n            hashedBids[msg.sender] = closedBid(hashedBid, now);\r\n            bidExists[msg.sender] = true;\r\n        }\r\n    }\r\n\r\n    // Checks revealed bid and adds to priority queue\r\n    function revealBid(uint nonce, uint bidAmt) public onlyAfter(biddingEnd) onlyBefore(revelationEnd) {\r\n        require(hasBidBefore(msg.sender));\r\n\r\n        bytes memory toHash = abi.encodePacked(nonce, bidAmt);\r\n        bytes32 revealHash = keccak256(toHash);\r\n        closedBid memory closedBidOfSender = hashedBids[msg.sender];\r\n\r\n        require(revealHash == closedBidOfSender.hash, \"Incorrect nonce and/or bid amount!\");\r\n\r\n        openBid memory revealedBid = openBid(bidAmt, closedBidOfSender.time, msg.sender);\r\n        uint queueSize = bidQueue.length;\r\n        bool inserted = false;\r\n        openBid memory prevBid;\r\n        openBid memory temp;\r\n\r\n        for (uint i = 0; i < queueSize; i++) {\r\n            openBid memory currBid = bidQueue[i];\r\n            if (inserted) {\r\n                temp = prevBid;\r\n                prevBid = currBid;\r\n                bidQueue[i] = temp;\r\n            } else if ((bidAmt > currBid.amount) || ((bidAmt == currBid.amount) && (closedBidOfSender.time < currBid.time))) {\r\n                prevBid = currBid;\r\n                bidQueue[i] = revealedBid;\r\n                inserted = true;\r\n            } else {\r\n                // Does nothing\r\n            }\r\n        }\r\n\r\n        if (!inserted) { // Adds revealed bid to queue if not yet added\r\n            bidQueue.push(revealedBid);\r\n        } else { // Else adds the last bid back to queue\r\n            bidQueue.push(prevBid);\r\n        }\r\n\r\n        // Removes hashed bids from previous list to avoid sender revealing a valid bid more than once\r\n        delete hashedBids[msg.sender];\r\n        delete bidExists[msg.sender];\r\n\r\n    }\r\n\r\n    // Finds out which is the highest valid bid\r\n    function endRevelation() public ownerOnly onlyAfter(revelationEnd) {\r\n        require(!checkedByOwner);\r\n        if (bidQueue.length == 0) {\r\n            emit tenderEndsWithoutWinner();\r\n        } else {\r\n            openBid memory potentialWinningBid;\r\n            uint indexOfWinningBid = 0;\r\n            uint depositInWei = deposit * 1 ether;\r\n            while (!winnerExists && !(indexOfWinningBid >= bidQueue.length)) {\r\n                potentialWinningBid = bidQueue[indexOfWinningBid];\r\n                if ((potentialWinningBid.owner.balance - depositInWei) >= (potentialWinningBid.amount * 1 ether)) {\r\n                    winner = potentialWinningBid.owner;\r\n                    highestBid = potentialWinningBid.amount;\r\n                    winnerExists = true;\r\n                } else {\r\n                    indexOfWinningBid++;\r\n                }\r\n            }\r\n\r\n            // Returns deposit to only bidders wiht valid losing bids\r\n            openBid memory losingBid;\r\n            for (uint i = indexOfWinningBid + 1; i < bidQueue.length; i++) {\r\n                losingBid = bidQueue[i];\r\n                if ((losingBid.owner.balance - depositInWei) >= (losingBid.amount * 1 ether)) {\r\n                    losingBid.owner.transfer(depositInWei);\r\n                }\r\n            }\r\n\r\n            if (winnerExists) {\r\n                emit tenderEndsWithWinner(winner, highestBid);\r\n            } else {\r\n                emit tenderEndsWithoutWinner();\r\n            }\r\n        }\r\n\r\n        checkedByOwner = true;\r\n    }\r\n\r\n    // Closes the tender\r\n    function close() public ownerOnly {\r\n        require(checkedByOwner);\r\n        selfdestruct(owner);\r\n    }\r\n\r\n    // Changes the details of the Tender project\r\n    function reopenTender(string memory desc, uint biddingDuration, uint revelationDuration, uint depositAmount) public ownerOnly {\r\n        projectDescription = desc;\r\n        biddingEnd = now + (biddingDuration * 1 minutes);\r\n        revelationEnd = biddingEnd + (revelationDuration * 1 minutes);\r\n        deposit = depositAmount;\r\n        checkedByOwner = false;\r\n    }\r\n\r\n    // Gets the phase of the Tender bidding event\r\n    function getPhase() public view returns (string memory) {\r\n        if (now < biddingEnd) {\r\n            return 'Bidding';\r\n        } else if (now < revelationEnd) {\r\n            return 'Revelation';\r\n        } else {\r\n            return 'End';\r\n        }\r\n    }\r\n\r\n    // Gets details about the Tender project\r\n    function getProjectDetails() public view returns (string memory, uint, uint, uint) {\r\n        return (projectDescription, deposit, biddingEnd, revelationEnd);\r\n    }\r\n\r\n    // Gets the result after revelation period\r\n    function getResults() public view onlyAfter(revelationEnd) returns (address, uint) {\r\n        require(checkedByOwner);\r\n        return (winner, highestBid);\r\n    }\r\n\r\n}\r\n",
  "sourcePath": "C:/Users/Dell/Desktop/Blockchain (SMU Certified)/bc-tender/contracts/Tender.sol",
  "compiler": {
    "name": "solc",
    "version": "0.5.8+commit.23d335f2.Emscripten.clang"
  },
  "schemaVersion": "3.0.10",
  "updatedAt": "2019-06-06T04:40:12.861Z",
  "devdoc": {
    "methods": {}
  },
  "userdoc": {
    "methods": {}
  }
}