{
  "contractName": "Tender",
  "abi": [
    {
      "inputs": [
        {
          "name": "desc",
          "type": "string"
        },
        {
          "name": "biddingDuration",
          "type": "uint256"
        },
        {
          "name": "revelationDuration",
          "type": "uint256"
        },
        {
          "name": "depositAmount",
          "type": "uint256"
        }
      ],
      "payable": true,
      "stateMutability": "payable",
      "type": "constructor"
    },
    {
      "anonymous": false,
      "inputs": [
        {
          "indexed": false,
          "name": "winner",
          "type": "address"
        },
        {
          "indexed": false,
          "name": "bid",
          "type": "uint256"
        }
      ],
      "name": "tenderEndsWithWinner",
      "type": "event"
    },
    {
      "anonymous": false,
      "inputs": [],
      "name": "tenderEndsWithoutWinner",
      "type": "event"
    },
    {
      "constant": true,
      "inputs": [
        {
          "name": "bidder",
          "type": "address"
        }
      ],
      "name": "hasBidBefore",
      "outputs": [
        {
          "name": "",
          "type": "bool"
        }
      ],
      "payable": false,
      "stateMutability": "view",
      "type": "function"
    },
    {
      "constant": true,
      "inputs": [],
      "name": "hasBeenChecked",
      "outputs": [
        {
          "name": "",
          "type": "bool"
        }
      ],
      "payable": false,
      "stateMutability": "view",
      "type": "function"
    },
    {
      "constant": true,
      "inputs": [
        {
          "name": "user",
          "type": "address"
        }
      ],
      "name": "isOwner",
      "outputs": [
        {
          "name": "",
          "type": "bool"
        }
      ],
      "payable": false,
      "stateMutability": "view",
      "type": "function"
    },
    {
      "constant": true,
      "inputs": [],
      "name": "hasWinner",
      "outputs": [
        {
          "name": "",
          "type": "bool"
        }
      ],
      "payable": false,
      "stateMutability": "view",
      "type": "function"
    },
    {
      "constant": false,
      "inputs": [
        {
          "name": "hashedBid",
          "type": "bytes32"
        }
      ],
      "name": "makeBid",
      "outputs": [],
      "payable": true,
      "stateMutability": "payable",
      "type": "function"
    },
    {
      "constant": false,
      "inputs": [
        {
          "name": "nonce",
          "type": "uint256"
        },
        {
          "name": "bidAmt",
          "type": "uint256"
        }
      ],
      "name": "revealBid",
      "outputs": [],
      "payable": false,
      "stateMutability": "nonpayable",
      "type": "function"
    },
    {
      "constant": false,
      "inputs": [],
      "name": "endRevelation",
      "outputs": [],
      "payable": false,
      "stateMutability": "nonpayable",
      "type": "function"
    },
    {
      "constant": false,
      "inputs": [],
      "name": "close",
      "outputs": [],
      "payable": false,
      "stateMutability": "nonpayable",
      "type": "function"
    },
    {
      "constant": false,
      "inputs": [
        {
          "name": "desc",
          "type": "string"
        },
        {
          "name": "biddingDuration",
          "type": "uint256"
        },
        {
          "name": "revelationDuration",
          "type": "uint256"
        },
        {
          "name": "depositAmount",
          "type": "uint256"
        }
      ],
      "name": "reopenTender",
      "outputs": [],
      "payable": false,
      "stateMutability": "nonpayable",
      "type": "function"
    },
    {
      "constant": true,
      "inputs": [],
      "name": "getPhase",
      "outputs": [
        {
          "name": "",
          "type": "string"
        }
      ],
      "payable": false,
      "stateMutability": "view",
      "type": "function"
    },
    {
      "constant": true,
      "inputs": [],
      "name": "getProjectDetails",
      "outputs": [
        {
          "name": "",
          "type": "string"
        },
        {
          "name": "",
          "type": "uint256"
        },
        {
          "name": "",
          "type": "uint256"
        },
        {
          "name": "",
          "type": "uint256"
        }
      ],
      "payable": false,
      "stateMutability": "view",
      "type": "function"
    },
    {
      "constant": true,
      "inputs": [],
      "name": "getResults",
      "outputs": [
        {
          "name": "",
          "type": "address"
        },
        {
          "name": "",
          "type": "uint256"
        }
      ],
      "payable": false,
      "stateMutability": "view",
      "type": "function"
    }
  ],
  "bytecode": "0x60806040526040516200188938038062001889833981018060405260808110156200002957600080fd5b8101908080516401000000008111156200004257600080fd5b828101905060208101848111156200005957600080fd5b81518560018202830111640100000000821117156200007757600080fd5b5050929190602001805190602001909291908051906020019092919080519060200190929190505050336000806101000a81548173ffffffffffffffffffffffffffffffffffffffff021916908373ffffffffffffffffffffffffffffffffffffffff1602179055508360019080519060200190620000f892919062000124565b50603c83024201600381905550603c8202600354016004819055508060028190555050505050620001d3565b828054600181600116156101000203166002900490600052602060002090601f016020900481019282601f106200016757805160ff191683800117855562000198565b8280016001018555821562000198579182015b82811115620001975782518255916020019190600101906200017a565b5b509050620001a79190620001ab565b5090565b620001d091905b80821115620001cc576000816000905550600101620001b2565b5090565b90565b6116a680620001e36000396000f3fe6080604052600436106100ba576000357c0100000000000000000000000000000000000000000000000000000000900463ffffffff1680631f7c30fd146100bf5780632f54bf6e146101a557806343d726d61461020e5780634717f97c14610225578063553545d21461028357806361c99ece146102b15780636a0054d11461031a5780637a935370146103315780639755a71014610376578063ec9e277c146103a5578063eced0280146103d4578063ff3a9c7e14610464575b600080fd5b3480156100cb57600080fd5b506101a3600480360360808110156100e257600080fd5b81019080803590602001906401000000008111156100ff57600080fd5b82018360208201111561011157600080fd5b8035906020019184600183028401116401000000008311171561013357600080fd5b91908080601f016020809104026020016040519081016040528093929190818152602001838380828437600081840152601f19601f820116905080830192505050505050509192919290803590602001909291908035906020019092919080359060200190929190505050610509565b005b3480156101b157600080fd5b506101f4600480360360208110156101c857600080fd5b81019080803573ffffffffffffffffffffffffffffffffffffffff1690602001909291905050506105bd565b604051808215151515815260200191505060405180910390f35b34801561021a57600080fd5b50610223610616565b005b34801561023157600080fd5b5061023a6106c6565b604051808373ffffffffffffffffffffffffffffffffffffffff1673ffffffffffffffffffffffffffffffffffffffff1681526020018281526020019250505060405180910390f35b6102af6004803603602081101561029957600080fd5b8101908080359060200190929190505050610724565b005b3480156102bd57600080fd5b50610300600480360360208110156102d457600080fd5b81019080803573ffffffffffffffffffffffffffffffffffffffff1690602001909291905050506108fe565b604051808215151515815260200191505060405180910390f35b34801561032657600080fd5b5061032f610954565b005b34801561033d57600080fd5b506103746004803603604081101561035457600080fd5b810190808035906020019092919080359060200190929190505050610de3565b005b34801561038257600080fd5b5061038b61138b565b604051808215151515815260200191505060405180910390f35b3480156103b157600080fd5b506103ba6113cf565b604051808215151515815260200191505060405180910390f35b3480156103e057600080fd5b506103e96113f8565b6040518080602001828103825283818151815260200191508051906020019080838360005b8381101561042957808201518184015260208101905061040e565b50505050905090810190601f1680156104565780820380516001836020036101000a031916815260200191505b509250505060405180910390f35b34801561047057600080fd5b506104796114c4565b6040518080602001858152602001848152602001838152602001828103825286818151815260200191508051906020019080838360005b838110156104cb5780820151818401526020810190506104b0565b50505050905090810190601f1680156104f85780820380516001836020036101000a031916815260200191505b509550505050505060405180910390f35b3373ffffffffffffffffffffffffffffffffffffffff166000809054906101000a900473ffffffffffffffffffffffffffffffffffffffff1673ffffffffffffffffffffffffffffffffffffffff1614151561056457600080fd5b836001908051906020019061057a929190611580565b50603c83024201600381905550603c820260035401600481905550806002819055506000600760016101000a81548160ff02191690831515021790555050505050565b60008060009054906101000a900473ffffffffffffffffffffffffffffffffffffffff1673ffffffffffffffffffffffffffffffffffffffff168273ffffffffffffffffffffffffffffffffffffffff16149050919050565b3373ffffffffffffffffffffffffffffffffffffffff166000809054906101000a900473ffffffffffffffffffffffffffffffffffffffff1673ffffffffffffffffffffffffffffffffffffffff1614151561067157600080fd5b600760019054906101000a900460ff16151561068c57600080fd5b6000809054906101000a900473ffffffffffffffffffffffffffffffffffffffff1673ffffffffffffffffffffffffffffffffffffffff16ff5b60008060045480421115156106da57600080fd5b600760019054906101000a900460ff1615156106f557600080fd5b600560009054906101000a900473ffffffffffffffffffffffffffffffffffffffff1660065492509250509091565b600354804210151561073557600080fd5b61073e336108fe565b156107b357604080519081016040528083815260200142815250600860003373ffffffffffffffffffffffffffffffffffffffff1673ffffffffffffffffffffffffffffffffffffffff16815260200190815260200160002060008201518160000155602082015181600101559050506108fa565b670de0b6b3a76400006002540234141515610836576040517f08c379a000000000000000000000000000000000000000000000000000000000815260040180806020018281038252601c8152602001807f4465706f73697420616d6f756e7420697320696e636f7272656374210000000081525060200191505060405180910390fd5b604080519081016040528083815260200142815250600860003373ffffffffffffffffffffffffffffffffffffffff1673ffffffffffffffffffffffffffffffffffffffff16815260200190815260200160002060008201518160000155602082015181600101559050506001600960003373ffffffffffffffffffffffffffffffffffffffff1673ffffffffffffffffffffffffffffffffffffffff16815260200190815260200160002060006101000a81548160ff0219169083151502179055505b5050565b6000600960008373ffffffffffffffffffffffffffffffffffffffff1673ffffffffffffffffffffffffffffffffffffffff16815260200190815260200160002060009054906101000a900460ff169050919050565b3373ffffffffffffffffffffffffffffffffffffffff166000809054906101000a900473ffffffffffffffffffffffffffffffffffffffff1673ffffffffffffffffffffffffffffffffffffffff161415156109af57600080fd5b60045480421115156109c057600080fd5b600760019054906101000a900460ff161515156109dc57600080fd5b6000600a805490501415610a1b577f33e08f6e3768eedb2e4bacee86a18a76b6f19c3b73f0d070f3e1ee5c9456b8c360405160405180910390a1610dc5565b610a23611600565b60008090506000670de0b6b3a76400006002540290505b600760009054906101000a900460ff16158015610a5d5750600a80549050821015155b15610ba957600a82815481101515610a7157fe5b90600052602060002090600302016060604051908101604052908160008201548152602001600182015481526020016002820160009054906101000a900473ffffffffffffffffffffffffffffffffffffffff1673ffffffffffffffffffffffffffffffffffffffff1673ffffffffffffffffffffffffffffffffffffffff16815250509250670de0b6b3a764000083600001510281846040015173ffffffffffffffffffffffffffffffffffffffff163103101515610b9b578260400151600560006101000a81548173ffffffffffffffffffffffffffffffffffffffff021916908373ffffffffffffffffffffffffffffffffffffffff16021790555082600001516006819055506001600760006101000a81548160ff021916908315150217905550610ba4565b81806001019250505b610a3a565b610bb1611600565b60006001840190505b600a80549050811015610ce957600a81815481101515610bd657fe5b90600052602060002090600302016060604051908101604052908160008201548152602001600182015481526020016002820160009054906101000a900473ffffffffffffffffffffffffffffffffffffffff1673ffffffffffffffffffffffffffffffffffffffff1673ffffffffffffffffffffffffffffffffffffffff16815250509150670de0b6b3a764000082600001510283836040015173ffffffffffffffffffffffffffffffffffffffff163103101515610cdc57816040015173ffffffffffffffffffffffffffffffffffffffff166108fc849081150290604051600060405180830381858888f19350505050158015610cda573d6000803e3d6000fd5b505b8080600101915050610bba565b50600760009054906101000a900460ff1615610d93577fd69c971831c5571301c3ea9e7226489c0ce4c2f498bb8f90f7e17772e273a062600560009054906101000a900473ffffffffffffffffffffffffffffffffffffffff16600654604051808373ffffffffffffffffffffffffffffffffffffffff1673ffffffffffffffffffffffffffffffffffffffff1681526020018281526020019250505060405180910390a1610dc0565b7f33e08f6e3768eedb2e4bacee86a18a76b6f19c3b73f0d070f3e1ee5c9456b8c360405160405180910390a15b505050505b6001600760016101000a81548160ff02191690831515021790555050565b6003548042111515610df457600080fd5b6004548042101515610e0557600080fd5b610e0e336108fe565b1515610e1957600080fd5b6060848460405160200180838152602001828152602001925050506040516020818303038152906040529050600081805190602001209050610e59611638565b600860003373ffffffffffffffffffffffffffffffffffffffff1673ffffffffffffffffffffffffffffffffffffffff168152602001908152602001600020604080519081016040529081600082015481526020016001820154815250509050806000015182141515610f5a576040517f08c379a00000000000000000000000000000000000000000000000000000000081526004018080602001828103825260228152602001807f496e636f7272656374206e6f6e636520616e642f6f722062696420616d6f756e81526020017f742100000000000000000000000000000000000000000000000000000000000081525060400191505060405180910390fd5b610f62611600565b606060405190810160405280888152602001836020015181526020013373ffffffffffffffffffffffffffffffffffffffff1681525090506000600a8054905090506000809050610fb1611600565b610fb9611600565b60008090505b848110156111b657610fcf611600565b600a82815481101515610fde57fe5b90600052602060002090600302016060604051908101604052908160008201548152602001600182015481526020016002820160009054906101000a900473ffffffffffffffffffffffffffffffffffffffff1673ffffffffffffffffffffffffffffffffffffffff1673ffffffffffffffffffffffffffffffffffffffff1681525050905084156110f15783925080935082600a8381548110151561108057fe5b9060005260206000209060030201600082015181600001556020820151816001015560408201518160020160006101000a81548173ffffffffffffffffffffffffffffffffffffffff021916908373ffffffffffffffffffffffffffffffffffffffff1602179055509050506111a8565b80600001518d1180611119575080600001518d148015611118575080602001518860200151105b5b156111a65780935086600a8381548110151561113157fe5b9060005260206000209060030201600082015181600001556020820151816001015560408201518160020160006101000a81548173ffffffffffffffffffffffffffffffffffffffff021916908373ffffffffffffffffffffffffffffffffffffffff160217905550905050600194506111a7565b5b5b508080600101915050610fbf565b5082151561124f57600a8590806001815401808255809150509060018203906000526020600020906003020160009091929091909150600082015181600001556020820151816001015560408201518160020160006101000a81548173ffffffffffffffffffffffffffffffffffffffff021916908373ffffffffffffffffffffffffffffffffffffffff1602179055505050506112dc565b600a8290806001815401808255809150509060018203906000526020600020906003020160009091929091909150600082015181600001556020820151816001015560408201518160020160006101000a81548173ffffffffffffffffffffffffffffffffffffffff021916908373ffffffffffffffffffffffffffffffffffffffff1602179055505050505b600860003373ffffffffffffffffffffffffffffffffffffffff1673ffffffffffffffffffffffffffffffffffffffff16815260200190815260200160002060008082016000905560018201600090555050600960003373ffffffffffffffffffffffffffffffffffffffff1673ffffffffffffffffffffffffffffffffffffffff16815260200190815260200160002060006101000a81549060ff0219169055505050505050505050505050565b6000600454804211151561139e57600080fd5b600760019054906101000a900460ff1615156113b957600080fd5b600760009054906101000a900460ff1691505090565b600060045480421115156113e257600080fd5b600760019054906101000a900460ff1691505090565b6060600354421015611441576040805190810160405280600781526020017f42696464696e670000000000000000000000000000000000000000000000000081525090506114c1565b600454421015611488576040805190810160405280600a81526020017f526576656c6174696f6e0000000000000000000000000000000000000000000081525090506114c1565b6040805190810160405280600381526020017f456e64000000000000000000000000000000000000000000000000000000000081525090505b90565b606060008060006001600254600354600454838054600181600116156101000203166002900480601f01602080910402602001604051908101604052809291908181526020018280546001816001161561010002031660029004801561156b5780601f106115405761010080835404028352916020019161156b565b820191906000526020600020905b81548152906001019060200180831161154e57829003601f168201915b50505050509350935093509350935090919293565b828054600181600116156101000203166002900490600052602060002090601f016020900481019282601f106115c157805160ff19168380011785556115ef565b828001600101855582156115ef579182015b828111156115ee5782518255916020019190600101906115d3565b5b5090506115fc9190611655565b5090565b6060604051908101604052806000815260200160008152602001600073ffffffffffffffffffffffffffffffffffffffff1681525090565b604080519081016040528060008019168152602001600081525090565b61167791905b8082111561167357600081600090555060010161165b565b5090565b9056fea165627a7a723058205387c811deedabaeac18e8bb416449b0243244c54dffb1918a42f652c238fe940029",
  "source": "pragma solidity ^0.5.0;\n\ncontract Tender {\n\n    address payable private owner;\n    string private projectDescription;\n    uint private deposit;\n    uint private biddingEnd;\n    uint private revelationEnd;\n    address private winner;\n    uint private highestBid;\n    bool private winnerExists;\n    bool private checkedByOwner;\n    mapping(address => closedBid) hashedBids;\n    mapping(address => bool) bidExists;\n    openBid[] private bidQueue;\n\n    event tenderEndsWithWinner(address winner, uint bid);\n    event tenderEndsWithoutWinner();\n\n    struct closedBid {\n        bytes32 hash;\n        uint time;\n    }\n\n    struct openBid {\n        uint amount;\n        uint time;\n        address payable owner;\n    }\n\n    // Bidding duration in minutes\n    constructor(string memory desc, uint biddingDuration, uint revelationDuration, uint depositAmount) public payable {\n        owner = msg.sender;\n        projectDescription = desc;\n        biddingEnd = now + (biddingDuration * 1 minutes);\n        revelationEnd = biddingEnd + (revelationDuration * 1 minutes);\n        deposit = depositAmount; // Deposit in Ether\n    }\n\n    modifier onlyBefore(uint time) {\n        require(now < time);\n        _;\n    }\n\n    modifier onlyAfter(uint time) {\n        require(now > time);\n        _;\n    }\n\n    modifier ownerOnly() {\n        require(owner == msg.sender);\n        _;\n    }\n\n    function hasBidBefore(address bidder) public view returns (bool) {\n        return bidExists[bidder];\n    }\n\n    function hasBeenChecked() public view onlyAfter(revelationEnd) returns (bool) {\n      return checkedByOwner;\n    }\n\n    function isOwner(address user) public view returns (bool) {\n      return (user == owner);\n    }\n\n    function hasWinner() public view onlyAfter(revelationEnd) returns (bool) {\n      require(checkedByOwner);\n      return winnerExists;\n    }\n\n    // Lets bidder submit hashed bids and ensures that bidders only make one bid each\n    function makeBid(bytes32 hashedBid) public payable onlyBefore(biddingEnd) {\n        if (hasBidBefore(msg.sender)) {\n            hashedBids[msg.sender] = closedBid(hashedBid, now);\n        } else {\n            require(msg.value == (deposit * 1 ether), \"Deposit amount is incorrect!\");\n            hashedBids[msg.sender] = closedBid(hashedBid, now);\n            bidExists[msg.sender] = true;\n        }\n    }\n\n    // Checks revealed bid and adds to priority queue\n    function revealBid(uint nonce, uint bidAmt) public onlyAfter(biddingEnd) onlyBefore(revelationEnd) {\n        require(hasBidBefore(msg.sender));\n\n        bytes memory toHash = abi.encodePacked(nonce, bidAmt);\n        bytes32 revealHash = keccak256(toHash);\n        closedBid memory closedBidOfSender = hashedBids[msg.sender];\n\n        require(revealHash == closedBidOfSender.hash, \"Incorrect nonce and/or bid amount!\");\n\n        openBid memory revealedBid = openBid(bidAmt, closedBidOfSender.time, msg.sender);\n        uint queueSize = bidQueue.length;\n        bool inserted = false;\n        openBid memory prevBid;\n        openBid memory temp;\n\n        for (uint i = 0; i < queueSize; i++) {\n            openBid memory currBid = bidQueue[i];\n            if (inserted) {\n                temp = prevBid;\n                prevBid = currBid;\n                bidQueue[i] = temp;\n            } else if ((bidAmt > currBid.amount) || ((bidAmt == currBid.amount) && (closedBidOfSender.time < currBid.time))) {\n                prevBid = currBid;\n                bidQueue[i] = revealedBid;\n                inserted = true;\n            } else {\n                // Does nothing\n            }\n        }\n\n        if (!inserted) { // Adds revealed bid to queue if not yet added\n            bidQueue.push(revealedBid);\n        } else { // Else adds the last bid back to queue\n            bidQueue.push(prevBid);\n        }\n\n        // Removes hashed bids from previous list to avoid sender revealing a valid bid more than once\n        delete hashedBids[msg.sender];\n        delete bidExists[msg.sender];\n\n    }\n\n    // Finds out which is the highest valid bid\n    function endRevelation() public ownerOnly onlyAfter(revelationEnd) {\n        require(!checkedByOwner);\n        if (bidQueue.length == 0) {\n            emit tenderEndsWithoutWinner();\n        } else {\n            openBid memory potentialWinningBid;\n            uint indexOfWinningBid = 0;\n            uint depositInWei = deposit * 1 ether;\n            while (!winnerExists && !(indexOfWinningBid >= bidQueue.length)) {\n                potentialWinningBid = bidQueue[indexOfWinningBid];\n                if ((potentialWinningBid.owner.balance - depositInWei) >= (potentialWinningBid.amount * 1 ether)) {\n                    winner = potentialWinningBid.owner;\n                    highestBid = potentialWinningBid.amount;\n                    winnerExists = true;\n                } else {\n                    indexOfWinningBid++;\n                }\n            }\n\n            // Returns deposit to only bidders wiht valid losing bids\n            openBid memory losingBid;\n            for (uint i = indexOfWinningBid + 1; i < bidQueue.length; i++) {\n                losingBid = bidQueue[i];\n                if ((losingBid.owner.balance - depositInWei) >= (losingBid.amount * 1 ether)) {\n                    losingBid.owner.transfer(depositInWei);\n                }\n            }\n\n            if (winnerExists) {\n                emit tenderEndsWithWinner(winner, highestBid);\n            } else {\n                emit tenderEndsWithoutWinner();\n            }\n        }\n\n        checkedByOwner = true;\n    }\n\n    // Closes the tender\n    function close() public ownerOnly {\n        require(checkedByOwner);\n        selfdestruct(owner);\n    }\n\n    // Changes the details of the Tender project\n    function reopenTender(string memory desc, uint biddingDuration, uint revelationDuration, uint depositAmount) public ownerOnly {\n        projectDescription = desc;\n        biddingEnd = now + (biddingDuration * 1 minutes);\n        revelationEnd = biddingEnd + (revelationDuration * 1 minutes);\n        deposit = depositAmount;\n        checkedByOwner = false;\n    }\n\n    // Gets the phase of the Tender bidding event\n    function getPhase() public view returns (string memory) {\n        if (now < biddingEnd) {\n            return 'Bidding';\n        } else if (now < revelationEnd) {\n            return 'Revelation';\n        } else {\n            return 'End';\n        }\n    }\n\n    // Gets details about the Tender project\n    function getProjectDetails() public view returns (string memory, uint, uint, uint) {\n        return (projectDescription, deposit, biddingEnd, revelationEnd);\n    }\n\n    // Gets the result after revelation period\n    function getResults() public view onlyAfter(revelationEnd) returns (address, uint) {\n        require(checkedByOwner);\n        return (winner, highestBid);\n    }\n\n}\n",
  "sourcePath": "/Users/raine/Documents/GitHub/bc-tender/contracts/Tender.sol",
  "compiler": {
    "name": "solc",
    "version": "0.5.0+commit.1d4f565a.Emscripten.clang"
  },
  "schemaVersion": "3.0.9",
  "updatedAt": "2019-06-07T01:25:18.474Z",
  "devdoc": {
    "methods": {}
  },
  "userdoc": {
    "methods": {}
  }
}