{
  "contractName": "Tender",
  "abi": [
    {
      "inputs": [
        {
          "name": "desc",
          "type": "string"
        },
        {
          "name": "biddingDuration",
          "type": "uint256"
        },
        {
          "name": "revelationDuration",
          "type": "uint256"
        },
        {
          "name": "depositAmount",
          "type": "uint256"
        }
      ],
      "payable": true,
      "stateMutability": "payable",
      "type": "constructor"
    },
    {
      "anonymous": false,
      "inputs": [
        {
          "indexed": false,
          "name": "winner",
          "type": "address"
        },
        {
          "indexed": false,
          "name": "bid",
          "type": "uint256"
        }
      ],
      "name": "tenderEndsWithWinner",
      "type": "event"
    },
    {
      "anonymous": false,
      "inputs": [],
      "name": "tenderEndsWithoutWinner",
      "type": "event"
    },
    {
      "constant": true,
      "inputs": [
        {
          "name": "bidder",
          "type": "address"
        }
      ],
      "name": "hasBidBefore",
      "outputs": [
        {
          "name": "",
          "type": "bool"
        }
      ],
      "payable": false,
      "stateMutability": "view",
      "type": "function"
    },
    {
      "constant": true,
      "inputs": [],
      "name": "hasBeenChecked",
      "outputs": [
        {
          "name": "",
          "type": "bool"
        }
      ],
      "payable": false,
      "stateMutability": "view",
      "type": "function"
    },
    {
      "constant": true,
      "inputs": [
        {
          "name": "user",
          "type": "address"
        }
      ],
      "name": "isOwner",
      "outputs": [
        {
          "name": "",
          "type": "bool"
        }
      ],
      "payable": false,
      "stateMutability": "view",
      "type": "function"
    },
    {
      "constant": true,
      "inputs": [],
      "name": "hasWinner",
      "outputs": [
        {
          "name": "",
          "type": "bool"
        }
      ],
      "payable": false,
      "stateMutability": "view",
      "type": "function"
    },
    {
      "constant": false,
      "inputs": [
        {
          "name": "hashedBid",
          "type": "bytes32"
        }
      ],
      "name": "makeBid",
      "outputs": [],
      "payable": true,
      "stateMutability": "payable",
      "type": "function"
    },
    {
      "constant": false,
      "inputs": [
        {
          "name": "nonce",
          "type": "uint256"
        },
        {
          "name": "bidAmt",
          "type": "uint256"
        }
      ],
      "name": "revealBid",
      "outputs": [],
      "payable": false,
      "stateMutability": "nonpayable",
      "type": "function"
    },
    {
      "constant": false,
      "inputs": [],
      "name": "endRevelation",
      "outputs": [],
      "payable": false,
      "stateMutability": "nonpayable",
      "type": "function"
    },
    {
      "constant": false,
      "inputs": [],
      "name": "close",
      "outputs": [],
      "payable": false,
      "stateMutability": "nonpayable",
      "type": "function"
    },
    {
      "constant": false,
      "inputs": [
        {
          "name": "desc",
          "type": "string"
        },
        {
          "name": "biddingDuration",
          "type": "uint256"
        },
        {
          "name": "revelationDuration",
          "type": "uint256"
        },
        {
          "name": "depositAmount",
          "type": "uint256"
        }
      ],
      "name": "reopenTender",
      "outputs": [],
      "payable": false,
      "stateMutability": "nonpayable",
      "type": "function"
    },
    {
      "constant": true,
      "inputs": [],
      "name": "getPhase",
      "outputs": [
        {
          "name": "",
          "type": "string"
        }
      ],
      "payable": false,
      "stateMutability": "view",
      "type": "function"
    },
    {
      "constant": true,
      "inputs": [],
      "name": "getProjectDetails",
      "outputs": [
        {
          "name": "",
          "type": "string"
        },
        {
          "name": "",
          "type": "uint256"
        },
        {
          "name": "",
          "type": "uint256"
        },
        {
          "name": "",
          "type": "uint256"
        }
      ],
      "payable": false,
      "stateMutability": "view",
      "type": "function"
    },
    {
      "constant": true,
      "inputs": [],
      "name": "getResult",
      "outputs": [
        {
          "name": "",
          "type": "address"
        },
        {
          "name": "",
          "type": "uint256"
        }
      ],
      "payable": false,
      "stateMutability": "view",
      "type": "function"
    }
  ],
  "bytecode": "0x608060405260405162001b0338038062001b03833981018060405260808110156200002957600080fd5b8101908080516401000000008111156200004257600080fd5b828101905060208101848111156200005957600080fd5b81518560018202830111640100000000821117156200007757600080fd5b5050929190602001805190602001909291908051906020019092919080519060200190929190505050336000806101000a81548173ffffffffffffffffffffffffffffffffffffffff021916908373ffffffffffffffffffffffffffffffffffffffff1602179055508360019080519060200190620000f892919062000124565b50603c83024201600381905550603c8202600354016004819055508060028190555050505050620001d3565b828054600181600116156101000203166002900490600052602060002090601f016020900481019282601f106200016757805160ff191683800117855562000198565b8280016001018555821562000198579182015b82811115620001975782518255916020019190600101906200017a565b5b509050620001a79190620001ab565b5090565b620001d091905b80821115620001cc576000816000905550600101620001b2565b5090565b90565b61192080620001e36000396000f3fe6080604052600436106100a75760003560e01c80637a935370116100645780637a935370146102c05780639755a71014610305578063de29278914610334578063ec9e277c14610392578063eced0280146103c1578063ff3a9c7e14610451576100a7565b80631f7c30fd146100ac5780632f54bf6e1461019257806343d726d6146101fb578063553545d21461021257806361c99ece146102405780636a0054d1146102a9575b600080fd5b3480156100b857600080fd5b50610190600480360360808110156100cf57600080fd5b81019080803590602001906401000000008111156100ec57600080fd5b8201836020820111156100fe57600080fd5b8035906020019184600183028401116401000000008311171561012057600080fd5b91908080601f016020809104026020016040519081016040528093929190818152602001838380828437600081840152601f19601f8201169050808301925050505050505091929192908035906020019092919080359060200190929190803590602001909291905050506104f6565b005b34801561019e57600080fd5b506101e1600480360360208110156101b557600080fd5b81019080803573ffffffffffffffffffffffffffffffffffffffff16906020019092919050505061078c565b604051808215151515815260200191505060405180910390f35b34801561020757600080fd5b506102106107e5565b005b61023e6004803603602081101561022857600080fd5b8101908080359060200190929190505050610891565b005b34801561024c57600080fd5b5061028f6004803603602081101561026357600080fd5b81019080803573ffffffffffffffffffffffffffffffffffffffff169060200190929190505050610acd565b604051808215151515815260200191505060405180910390f35b3480156102b557600080fd5b506102be610b23565b005b3480156102cc57600080fd5b50610303600480360360408110156102e357600080fd5b810190808035906020019092919080359060200190929190505050610fa2565b005b34801561031157600080fd5b5061031a6114f5565b604051808215151515815260200191505060405180910390f35b34801561034057600080fd5b50610349611535565b604051808373ffffffffffffffffffffffffffffffffffffffff1673ffffffffffffffffffffffffffffffffffffffff1681526020018281526020019250505060405180910390f35b34801561039e57600080fd5b506103a761158f565b604051808215151515815260200191505060405180910390f35b3480156103cd57600080fd5b506103d66115b6565b6040518080602001828103825283818151815260200191508051906020019080838360005b838110156104165780820151818401526020810190506103fb565b50505050905090810190601f1680156104435780820380516001836020036101000a031916815260200191505b509250505060405180910390f35b34801561045d57600080fd5b50610466611682565b6040518080602001858152602001848152602001838152602001828103825286818151815260200191508051906020019080838360005b838110156104b857808201518184015260208101905061049d565b50505050905090810190601f1680156104e55780820380516001836020036101000a031916815260200191505b509550505050505060405180910390f35b3373ffffffffffffffffffffffffffffffffffffffff166000809054906101000a900473ffffffffffffffffffffffffffffffffffffffff1673ffffffffffffffffffffffffffffffffffffffff161461054f57600080fd5b600760019054906101000a900460ff1661056857600080fd5b600760009054906101000a900460ff161561058257600080fd5b836001908051906020019061059892919061173e565b50603c83024201600381905550603c820260035401600481905550806002819055506000600560006101000a81548173ffffffffffffffffffffffffffffffffffffffff021916908373ffffffffffffffffffffffffffffffffffffffff16021790555060006006819055506000600760006101000a81548160ff02191690831515021790555060008090505b600b8054905081101561074e5760086000600b838154811061064357fe5b9060005260206000200160009054906101000a900473ffffffffffffffffffffffffffffffffffffffff1673ffffffffffffffffffffffffffffffffffffffff1673ffffffffffffffffffffffffffffffffffffffff1681526020019081526020016000206000808201600090556001820160009055505060096000600b83815481106106cc57fe5b9060005260206000200160009054906101000a900473ffffffffffffffffffffffffffffffffffffffff1673ffffffffffffffffffffffffffffffffffffffff1673ffffffffffffffffffffffffffffffffffffffff16815260200190815260200160002060006101000a81549060ff02191690558080600101915050610625565b50600b600061075d91906117be565b600a600061076b91906117df565b6000600760016101000a81548160ff02191690831515021790555050505050565b60008060009054906101000a900473ffffffffffffffffffffffffffffffffffffffff1673ffffffffffffffffffffffffffffffffffffffff168273ffffffffffffffffffffffffffffffffffffffff16149050919050565b3373ffffffffffffffffffffffffffffffffffffffff166000809054906101000a900473ffffffffffffffffffffffffffffffffffffffff1673ffffffffffffffffffffffffffffffffffffffff161461083e57600080fd5b600760019054906101000a900460ff1661085757600080fd5b6000809054906101000a900473ffffffffffffffffffffffffffffffffffffffff1673ffffffffffffffffffffffffffffffffffffffff16ff5b6003548042106108a057600080fd5b6108a933610acd565b1561091e57604051806040016040528083815260200142815250600860003373ffffffffffffffffffffffffffffffffffffffff1673ffffffffffffffffffffffffffffffffffffffff1681526020019081526020016000206000820151816000015560208201518160010155905050610ac9565b670de0b6b3a764000060025402341461099f576040517f08c379a000000000000000000000000000000000000000000000000000000000815260040180806020018281038252601c8152602001807f4465706f73697420616d6f756e7420697320696e636f7272656374210000000081525060200191505060405180910390fd5b604051806040016040528083815260200142815250600860003373ffffffffffffffffffffffffffffffffffffffff1673ffffffffffffffffffffffffffffffffffffffff16815260200190815260200160002060008201518160000155602082015181600101559050506001600960003373ffffffffffffffffffffffffffffffffffffffff1673ffffffffffffffffffffffffffffffffffffffff16815260200190815260200160002060006101000a81548160ff021916908315150217905550600b3390806001815401808255809150509060018203906000526020600020016000909192909190916101000a81548173ffffffffffffffffffffffffffffffffffffffff021916908373ffffffffffffffffffffffffffffffffffffffff160217905550505b5050565b6000600960008373ffffffffffffffffffffffffffffffffffffffff1673ffffffffffffffffffffffffffffffffffffffff16815260200190815260200160002060009054906101000a900460ff169050919050565b3373ffffffffffffffffffffffffffffffffffffffff166000809054906101000a900473ffffffffffffffffffffffffffffffffffffffff1673ffffffffffffffffffffffffffffffffffffffff1614610b7c57600080fd5b600454804211610b8b57600080fd5b600760019054906101000a900460ff1615610ba557600080fd5b6000600a805490501415610be4577f33e08f6e3768eedb2e4bacee86a18a76b6f19c3b73f0d070f3e1ee5c9456b8c360405160405180910390a1610f84565b610bec611803565b60008090506000670de0b6b3a76400006002540290505b600760009054906101000a900460ff16158015610c265750600a80549050821015155b15610d6d57600a8281548110610c3857fe5b906000526020600020906003020160405180606001604052908160008201548152602001600182015481526020016002820160009054906101000a900473ffffffffffffffffffffffffffffffffffffffff1673ffffffffffffffffffffffffffffffffffffffff1673ffffffffffffffffffffffffffffffffffffffff16815250509250670de0b6b3a764000083600001510281846040015173ffffffffffffffffffffffffffffffffffffffff16310310610d5f578260400151600560006101000a81548173ffffffffffffffffffffffffffffffffffffffff021916908373ffffffffffffffffffffffffffffffffffffffff16021790555082600001516006819055506001600760006101000a81548160ff021916908315150217905550610d68565b81806001019250505b610c03565b610d75611803565b60006001840190505b600a80549050811015610ea857600a8181548110610d9857fe5b906000526020600020906003020160405180606001604052908160008201548152602001600182015481526020016002820160009054906101000a900473ffffffffffffffffffffffffffffffffffffffff1673ffffffffffffffffffffffffffffffffffffffff1673ffffffffffffffffffffffffffffffffffffffff16815250509150670de0b6b3a764000082600001510283836040015173ffffffffffffffffffffffffffffffffffffffff16310310610e9b57816040015173ffffffffffffffffffffffffffffffffffffffff166108fc849081150290604051600060405180830381858888f19350505050158015610e99573d6000803e3d6000fd5b505b8080600101915050610d7e565b50600760009054906101000a900460ff1615610f52577fd69c971831c5571301c3ea9e7226489c0ce4c2f498bb8f90f7e17772e273a062600560009054906101000a900473ffffffffffffffffffffffffffffffffffffffff16600654604051808373ffffffffffffffffffffffffffffffffffffffff1673ffffffffffffffffffffffffffffffffffffffff1681526020018281526020019250505060405180910390a1610f7f565b7f33e08f6e3768eedb2e4bacee86a18a76b6f19c3b73f0d070f3e1ee5c9456b8c360405160405180910390a15b505050505b6001600760016101000a81548160ff02191690831515021790555050565b600354804211610fb157600080fd5b600454804210610fc057600080fd5b610fc933610acd565b610fd257600080fd5b606084846040516020018083815260200182815260200192505050604051602081830303815290604052905060008180519060200120905061101261183a565b600860003373ffffffffffffffffffffffffffffffffffffffff1673ffffffffffffffffffffffffffffffffffffffff168152602001908152602001600020604051806040016040529081600082015481526020016001820154815250509050806000015182146110ce576040517f08c379a00000000000000000000000000000000000000000000000000000000081526004018080602001828103825260228152602001806118d36022913960400191505060405180910390fd5b6110d6611803565b6040518060600160405280888152602001836020015181526020013373ffffffffffffffffffffffffffffffffffffffff1681525090506000600a8054905090506000809050611124611803565b61112c611803565b60008090505b8481101561132257611142611803565b600a828154811061114f57fe5b906000526020600020906003020160405180606001604052908160008201548152602001600182015481526020016002820160009054906101000a900473ffffffffffffffffffffffffffffffffffffffff1673ffffffffffffffffffffffffffffffffffffffff1673ffffffffffffffffffffffffffffffffffffffff16815250509050841561125f5783925080935082600a83815481106111ee57fe5b9060005260206000209060030201600082015181600001556020820151816001015560408201518160020160006101000a81548173ffffffffffffffffffffffffffffffffffffffff021916908373ffffffffffffffffffffffffffffffffffffffff160217905550905050611314565b80600001518d1180611287575080600001518d148015611286575080602001518860200151105b5b156113125780935086600a838154811061129d57fe5b9060005260206000209060030201600082015181600001556020820151816001015560408201518160020160006101000a81548173ffffffffffffffffffffffffffffffffffffffff021916908373ffffffffffffffffffffffffffffffffffffffff16021790555090505060019450611313565b5b5b508080600101915050611132565b50826113b957600a8590806001815401808255809150509060018203906000526020600020906003020160009091929091909150600082015181600001556020820151816001015560408201518160020160006101000a81548173ffffffffffffffffffffffffffffffffffffffff021916908373ffffffffffffffffffffffffffffffffffffffff160217905550505050611446565b600a8290806001815401808255809150509060018203906000526020600020906003020160009091929091909150600082015181600001556020820151816001015560408201518160020160006101000a81548173ffffffffffffffffffffffffffffffffffffffff021916908373ffffffffffffffffffffffffffffffffffffffff1602179055505050505b600860003373ffffffffffffffffffffffffffffffffffffffff1673ffffffffffffffffffffffffffffffffffffffff16815260200190815260200160002060008082016000905560018201600090555050600960003373ffffffffffffffffffffffffffffffffffffffff1673ffffffffffffffffffffffffffffffffffffffff16815260200190815260200160002060006101000a81549060ff0219169055505050505050505050505050565b600060045480421161150657600080fd5b600760019054906101000a900460ff1661151f57600080fd5b600760009054906101000a900460ff1691505090565b60008060045480421161154757600080fd5b600760019054906101000a900460ff1661156057600080fd5b600560009054906101000a900473ffffffffffffffffffffffffffffffffffffffff1660065492509250509091565b60006004548042116115a057600080fd5b600760019054906101000a900460ff1691505090565b60606003544210156115ff576040518060400160405280600781526020017f42696464696e6700000000000000000000000000000000000000000000000000815250905061167f565b600454421015611646576040518060400160405280600a81526020017f526576656c6174696f6e00000000000000000000000000000000000000000000815250905061167f565b6040518060400160405280600381526020017f456e64000000000000000000000000000000000000000000000000000000000081525090505b90565b606060008060006001600254600354600454838054600181600116156101000203166002900480601f0160208091040260200160405190810160405280929190818152602001828054600181600116156101000203166002900480156117295780601f106116fe57610100808354040283529160200191611729565b820191906000526020600020905b81548152906001019060200180831161170c57829003601f168201915b50505050509350935093509350935090919293565b828054600181600116156101000203166002900490600052602060002090601f016020900481019282601f1061177f57805160ff19168380011785556117ad565b828001600101855582156117ad579182015b828111156117ac578251825591602001919060010190611791565b5b5090506117ba9190611857565b5090565b50805460008255906000526020600020908101906117dc9190611857565b50565b5080546000825560030290600052602060002090810190611800919061187c565b50565b60405180606001604052806000815260200160008152602001600073ffffffffffffffffffffffffffffffffffffffff1681525090565b604051806040016040528060008019168152602001600081525090565b61187991905b8082111561187557600081600090555060010161185d565b5090565b90565b6118cf91905b808211156118cb5760008082016000905560018201600090556002820160006101000a81549073ffffffffffffffffffffffffffffffffffffffff021916905550600301611882565b5090565b9056fe496e636f7272656374206e6f6e636520616e642f6f722062696420616d6f756e7421a165627a7a723058203e1d0e3467319118a86da08cf8b471e3e82a89570c0d565bc92886c87bd33ad00029",
  "source": "pragma solidity ^0.5.0;\n\ncontract Tender {\n\n    address payable private owner;\n    string private projectDescription;\n    uint private deposit;\n    uint private biddingEnd;\n    uint private revelationEnd;\n    address private winner;\n    uint private highestBid;\n    bool private winnerExists;\n    bool private checkedByOwner;\n    mapping(address => closedBid) hashedBids;\n    mapping(address => bool) bidExists;\n    openBid[] private bidQueue;\n    address[] private bidders;\n\n    event tenderEndsWithWinner(address winner, uint bid);\n    event tenderEndsWithoutWinner();\n\n    struct closedBid {\n        bytes32 hash;\n        uint time;\n    }\n\n    struct openBid {\n        uint amount;\n        uint time;\n        address payable owner;\n    }\n\n    // Bidding duration in minutes\n    constructor(string memory desc, uint biddingDuration, uint revelationDuration, uint depositAmount) public payable {\n        owner = msg.sender;\n        projectDescription = desc;\n        biddingEnd = now + (biddingDuration * 1 minutes);\n        revelationEnd = biddingEnd + (revelationDuration * 1 minutes);\n        deposit = depositAmount; // Deposit in Ether\n    }\n\n    modifier onlyBefore(uint time) {\n        require(now < time);\n        _;\n    }\n\n    modifier onlyAfter(uint time) {\n        require(now > time);\n        _;\n    }\n\n    modifier ownerOnly() {\n        require(owner == msg.sender);\n        _;\n    }\n\n    function hasBidBefore(address bidder) public view returns (bool) {\n        return bidExists[bidder];\n    }\n\n    function hasBeenChecked() public view onlyAfter(revelationEnd) returns (bool) {\n      return checkedByOwner;\n    }\n\n    function isOwner(address user) public view returns (bool) {\n      return (user == owner);\n    }\n\n    function hasWinner() public view onlyAfter(revelationEnd) returns (bool) {\n      require(checkedByOwner);\n      return winnerExists;\n    }\n\n    // Lets bidder submit hashed bids and ensures that bidders only make one bid each\n    function makeBid(bytes32 hashedBid) public payable onlyBefore(biddingEnd) {\n        if (hasBidBefore(msg.sender)) {\n            hashedBids[msg.sender] = closedBid(hashedBid, now);\n        } else {\n            require(msg.value == (deposit * 1 ether), \"Deposit amount is incorrect!\");\n            hashedBids[msg.sender] = closedBid(hashedBid, now);\n            bidExists[msg.sender] = true;\n            bidders.push(msg.sender);\n        }\n    }\n\n    // Checks revealed bid and adds to priority queue\n    function revealBid(uint nonce, uint bidAmt) public onlyAfter(biddingEnd) onlyBefore(revelationEnd) {\n        require(hasBidBefore(msg.sender));\n\n        bytes memory toHash = abi.encodePacked(nonce, bidAmt);\n        bytes32 revealHash = keccak256(toHash);\n        closedBid memory closedBidOfSender = hashedBids[msg.sender];\n\n        require(revealHash == closedBidOfSender.hash, \"Incorrect nonce and/or bid amount!\");\n\n        openBid memory revealedBid = openBid(bidAmt, closedBidOfSender.time, msg.sender);\n        uint queueSize = bidQueue.length;\n        bool inserted = false;\n        openBid memory prevBid;\n        openBid memory temp;\n\n        for (uint i = 0; i < queueSize; i++) {\n            openBid memory currBid = bidQueue[i];\n            if (inserted) {\n                temp = prevBid;\n                prevBid = currBid;\n                bidQueue[i] = temp;\n            } else if ((bidAmt > currBid.amount) || ((bidAmt == currBid.amount) && (closedBidOfSender.time < currBid.time))) {\n                prevBid = currBid;\n                bidQueue[i] = revealedBid;\n                inserted = true;\n            } else {\n                // Does nothing\n            }\n        }\n\n        if (!inserted) { // Adds revealed bid to queue if not yet added\n            bidQueue.push(revealedBid);\n        } else { // Else adds the last bid back to queue\n            bidQueue.push(prevBid);\n        }\n\n        // Removes hashed bids from previous list to avoid sender revealing a valid bid more than once\n        delete hashedBids[msg.sender];\n        delete bidExists[msg.sender];\n\n    }\n\n    // Finds out which is the highest valid bid\n    function endRevelation() public ownerOnly onlyAfter(revelationEnd) {\n        require(!checkedByOwner);\n        if (bidQueue.length == 0) {\n            emit tenderEndsWithoutWinner();\n        } else {\n            openBid memory potentialWinningBid;\n            uint indexOfWinningBid = 0;\n            uint depositInWei = deposit * 1 ether;\n            while (!winnerExists && !(indexOfWinningBid >= bidQueue.length)) {\n                potentialWinningBid = bidQueue[indexOfWinningBid];\n                if ((potentialWinningBid.owner.balance - depositInWei) >= (potentialWinningBid.amount * 1 ether)) {\n                    winner = potentialWinningBid.owner;\n                    highestBid = potentialWinningBid.amount;\n                    winnerExists = true;\n                } else {\n                    indexOfWinningBid++;\n                }\n            }\n\n            // Returns deposit to only bidders wiht valid losing bids\n            openBid memory losingBid;\n            for (uint i = indexOfWinningBid + 1; i < bidQueue.length; i++) {\n                losingBid = bidQueue[i];\n                if ((losingBid.owner.balance - depositInWei) >= (losingBid.amount * 1 ether)) {\n                    losingBid.owner.transfer(depositInWei);\n                }\n            }\n\n            if (winnerExists) {\n                emit tenderEndsWithWinner(winner, highestBid);\n            } else {\n                emit tenderEndsWithoutWinner();\n            }\n        }\n\n        checkedByOwner = true;\n    }\n\n    // Closes the tender\n    function close() public ownerOnly {\n        require(checkedByOwner);\n        selfdestruct(owner);\n    }\n\n    // Changes the details of the Tender project\n    function reopenTender(string memory desc, uint biddingDuration, uint revelationDuration, uint depositAmount) public ownerOnly {\n        require(checkedByOwner);\n        require(!winnerExists);\n        projectDescription = desc;\n        biddingEnd = now + (biddingDuration * 1 minutes);\n        revelationEnd = biddingEnd + (revelationDuration * 1 minutes);\n        deposit = depositAmount;\n        winner = address(0);\n        highestBid = 0;\n        winnerExists = false;\n        for (uint i = 0; i < bidders.length; i++) {\n          delete hashedBids[bidders[i]];\n          delete bidExists[bidders[i]];\n        }\n        delete bidders;\n        delete bidQueue;\n        checkedByOwner = false;\n    }\n\n    // Gets the phase of the Tender bidding event\n    function getPhase() public view returns (string memory) {\n        if (now < biddingEnd) {\n            return 'Bidding';\n        } else if (now < revelationEnd) {\n            return 'Revelation';\n        } else {\n            return 'End';\n        }\n    }\n\n    // Gets details about the Tender project\n    function getProjectDetails() public view returns (string memory, uint, uint, uint) {\n        return (projectDescription, deposit, biddingEnd, revelationEnd);\n    }\n\n    // Gets the result after revelation period\n    function getResult() public view onlyAfter(revelationEnd) returns (address, uint) {\n        require(checkedByOwner);\n        return (winner, highestBid);\n    }\n\n}\n",
  "sourcePath": "/home/ley/Desktop/SMU_project/bc-tender/contracts/Tender.sol",
  "compiler": {
    "name": "solc",
    "version": "0.5.8+commit.23d335f2.Emscripten.clang"
  },
  "schemaVersion": "3.0.10",
  "updatedAt": "2019-06-09T14:18:40.661Z",
  "devdoc": {
    "methods": {}
  },
  "userdoc": {
    "methods": {}
  }
}